{
  "contractName": "SimpleNFTMarketplace",
  "abi": [
    {
      "anonymous": false,
      "inputs": [
        {
          "indexed": true,
          "internalType": "address",
          "name": "nftAddress",
          "type": "address"
        },
        {
          "indexed": true,
          "internalType": "uint256",
          "name": "tokenId",
          "type": "uint256"
        },
        {
          "indexed": false,
          "internalType": "address",
          "name": "buyer",
          "type": "address"
        },
        {
          "indexed": false,
          "internalType": "uint256",
          "name": "price",
          "type": "uint256"
        }
      ],
      "name": "NFTBought",
      "type": "event"
    },
    {
      "anonymous": false,
      "inputs": [
        {
          "indexed": true,
          "internalType": "address",
          "name": "nftAddress",
          "type": "address"
        },
        {
          "indexed": true,
          "internalType": "uint256",
          "name": "tokenId",
          "type": "uint256"
        },
        {
          "indexed": false,
          "internalType": "uint256",
          "name": "price",
          "type": "uint256"
        },
        {
          "indexed": false,
          "internalType": "address",
          "name": "seller",
          "type": "address"
        }
      ],
      "name": "NFTListed",
      "type": "event"
    },
    {
      "anonymous": false,
      "inputs": [
        {
          "indexed": true,
          "internalType": "address",
          "name": "nftAddress",
          "type": "address"
        },
        {
          "indexed": true,
          "internalType": "uint256",
          "name": "tokenId",
          "type": "uint256"
        },
        {
          "indexed": false,
          "internalType": "address",
          "name": "seller",
          "type": "address"
        }
      ],
      "name": "NFTUnlisted",
      "type": "event"
    },
    {
      "inputs": [
        {
          "internalType": "address",
          "name": "",
          "type": "address"
        },
        {
          "internalType": "uint256",
          "name": "",
          "type": "uint256"
        }
      ],
      "name": "listings",
      "outputs": [
        {
          "internalType": "uint256",
          "name": "price",
          "type": "uint256"
        },
        {
          "internalType": "address",
          "name": "sellers",
          "type": "address"
        }
      ],
      "stateMutability": "view",
      "type": "function"
    },
    {
      "inputs": [
        {
          "internalType": "address",
          "name": "nftAddress",
          "type": "address"
        },
        {
          "internalType": "uint256",
          "name": "tokenId",
          "type": "uint256"
        },
        {
          "internalType": "uint256",
          "name": "price",
          "type": "uint256"
        }
      ],
      "name": "ListNFT",
      "outputs": [],
      "stateMutability": "nonpayable",
      "type": "function"
    },
    {
      "inputs": [
        {
          "internalType": "address",
          "name": "nftAddress",
          "type": "address"
        },
        {
          "internalType": "uint256",
          "name": "tokenId",
          "type": "uint256"
        }
      ],
      "name": "buyNFT",
      "outputs": [],
      "stateMutability": "payable",
      "type": "function"
    },
    {
      "inputs": [
        {
          "internalType": "address",
          "name": "nftAddress",
          "type": "address"
        },
        {
          "internalType": "uint256",
          "name": "tokenId",
          "type": "uint256"
        }
      ],
      "name": "unlistNFT",
      "outputs": [],
      "stateMutability": "nonpayable",
      "type": "function"
    },
    {
      "inputs": [
        {
          "internalType": "address",
          "name": "nftAddress",
          "type": "address"
        },
        {
          "internalType": "uint256",
          "name": "tokenId",
          "type": "uint256"
        }
      ],
      "name": "getListing",
      "outputs": [
        {
          "components": [
            {
              "internalType": "uint256",
              "name": "price",
              "type": "uint256"
            },
            {
              "internalType": "address",
              "name": "sellers",
              "type": "address"
            }
          ],
          "internalType": "struct SimpleNFTMarketplace.NFTItems",
          "name": "",
          "type": "tuple"
        }
      ],
      "stateMutability": "view",
      "type": "function"
    }
  ],
  "bytecode": "0x608060405234801561000f575f80fd5b50610eaa8061001d5f395ff3fe608060405260043610610048575f3560e01c806207df301461004c5780636cd52e2a146100895780637fc27efd146100b157806388700d1c146100d9578063a82ba76f14610115575b5f80fd5b348015610057575f80fd5b50610072600480360381019061006d9190610a0c565b610131565b604051610080929190610a68565b60405180910390f35b348015610094575f80fd5b506100af60048036038101906100aa9190610a8f565b61017a565b005b3480156100bc575f80fd5b506100d760048036038101906100d29190610a0c565b61040b565b005b3480156100e4575f80fd5b506100ff60048036038101906100fa9190610a0c565b610602565b60405161010c9190610b2a565b60405180910390f35b61012f600480360381019061012a9190610a0c565b6106c6565b005b5f602052815f5260405f20602052805f5260405f205f9150915050805f015490806001015f9054906101000a900473ffffffffffffffffffffffffffffffffffffffff16905082565b5f805f8573ffffffffffffffffffffffffffffffffffffffff1673ffffffffffffffffffffffffffffffffffffffff1681526020019081526020015f205f8481526020019081526020015f205f015411610209576040517f08c379a000000000000000000000000000000000000000000000000000000000815260040161020090610b9d565b60405180910390fd5b3373ffffffffffffffffffffffffffffffffffffffff168373ffffffffffffffffffffffffffffffffffffffff16636352211e846040518263ffffffff1660e01b81526004016102599190610bbb565b602060405180830381865afa158015610274573d5f803e3d5ffd5b505050506040513d601f19601f820116820180604052508101906102989190610be8565b73ffffffffffffffffffffffffffffffffffffffff16146102ee576040517f08c379a00000000000000000000000000000000000000000000000000000000081526004016102e590610c83565b60405180910390fd5b60405180604001604052808281526020013373ffffffffffffffffffffffffffffffffffffffff168152505f808573ffffffffffffffffffffffffffffffffffffffff1673ffffffffffffffffffffffffffffffffffffffff1681526020019081526020015f205f8481526020019081526020015f205f820151815f01556020820151816001015f6101000a81548173ffffffffffffffffffffffffffffffffffffffff021916908373ffffffffffffffffffffffffffffffffffffffff160217905550905050818373ffffffffffffffffffffffffffffffffffffffff167f5ba0ddd8e72e3c5c274414bd1ef0dec9ae5220e0f6f534d859043e2a52f0319f83336040516103fe929190610a68565b60405180910390a3505050565b5f805f8473ffffffffffffffffffffffffffffffffffffffff1673ffffffffffffffffffffffffffffffffffffffff1681526020019081526020015f205f8381526020019081526020015f206040518060400160405290815f8201548152602001600182015f9054906101000a900473ffffffffffffffffffffffffffffffffffffffff1673ffffffffffffffffffffffffffffffffffffffff1673ffffffffffffffffffffffffffffffffffffffff168152505090503373ffffffffffffffffffffffffffffffffffffffff16816020015173ffffffffffffffffffffffffffffffffffffffff1614610534576040517f08c379a000000000000000000000000000000000000000000000000000000000815260040161052b90610d11565b60405180910390fd5b5f808473ffffffffffffffffffffffffffffffffffffffff1673ffffffffffffffffffffffffffffffffffffffff1681526020019081526020015f205f8381526020019081526020015f205f8082015f9055600182015f6101000a81549073ffffffffffffffffffffffffffffffffffffffff02191690555050818373ffffffffffffffffffffffffffffffffffffffff167f3eaee2cf135d2081ea16420f16d7d6c90a5b1e1789302efb7f87c541b29f1332336040516105f59190610d2f565b60405180910390a3505050565b61060a61094d565b5f808473ffffffffffffffffffffffffffffffffffffffff1673ffffffffffffffffffffffffffffffffffffffff1681526020019081526020015f205f8381526020019081526020015f206040518060400160405290815f8201548152602001600182015f9054906101000a900473ffffffffffffffffffffffffffffffffffffffff1673ffffffffffffffffffffffffffffffffffffffff1673ffffffffffffffffffffffffffffffffffffffff1681525050905092915050565b5f805f8473ffffffffffffffffffffffffffffffffffffffff1673ffffffffffffffffffffffffffffffffffffffff1681526020019081526020015f205f8381526020019081526020015f2090505f815f015411610759576040517f08c379a000000000000000000000000000000000000000000000000000000000815260040161075090610d92565b60405180910390fd5b805f015434101561079f576040517f08c379a000000000000000000000000000000000000000000000000000000000815260040161079690610dfa565b60405180910390fd5b5f816001015f9054906101000a900473ffffffffffffffffffffffffffffffffffffffff1690505f825f015490508473ffffffffffffffffffffffffffffffffffffffff166323b872dd8333876040518463ffffffff1660e01b815260040161080a93929190610e18565b5f604051808303815f87803b158015610821575f80fd5b505af1158015610833573d5f803e3d5ffd5b505050508173ffffffffffffffffffffffffffffffffffffffff166108fc8290811502906040515f60405180830381858888f1935050505015801561087a573d5f803e3d5ffd5b505f808673ffffffffffffffffffffffffffffffffffffffff1673ffffffffffffffffffffffffffffffffffffffff1681526020019081526020015f205f8581526020019081526020015f205f8082015f9055600182015f6101000a81549073ffffffffffffffffffffffffffffffffffffffff02191690555050838573ffffffffffffffffffffffffffffffffffffffff167fd049e2a63bc594b795843dbd138be07951c1fd96ef29b25ab85e74fc10f15085338460405161093e929190610e4d565b60405180910390a35050505050565b60405180604001604052805f81526020015f73ffffffffffffffffffffffffffffffffffffffff1681525090565b5f80fd5b5f73ffffffffffffffffffffffffffffffffffffffff82169050919050565b5f6109a88261097f565b9050919050565b6109b88161099e565b81146109c2575f80fd5b50565b5f813590506109d3816109af565b92915050565b5f819050919050565b6109eb816109d9565b81146109f5575f80fd5b50565b5f81359050610a06816109e2565b92915050565b5f8060408385031215610a2257610a2161097b565b5b5f610a2f858286016109c5565b9250506020610a40858286016109f8565b9150509250929050565b610a53816109d9565b82525050565b610a628161099e565b82525050565b5f604082019050610a7b5f830185610a4a565b610a886020830184610a59565b9392505050565b5f805f60608486031215610aa657610aa561097b565b5b5f610ab3868287016109c5565b9350506020610ac4868287016109f8565b9250506040610ad5868287016109f8565b9150509250925092565b610ae8816109d9565b82525050565b610af78161099e565b82525050565b604082015f820151610b115f850182610adf565b506020820151610b246020850182610aee565b50505050565b5f604082019050610b3d5f830184610afd565b92915050565b5f82825260208201905092915050565b7f5072696365206d7573742062652067726561746572207468616e207a65726f005f82015250565b5f610b87601f83610b43565b9150610b9282610b53565b602082019050919050565b5f6020820190508181035f830152610bb481610b7b565b9050919050565b5f602082019050610bce5f830184610a4a565b92915050565b5f81519050610be2816109af565b92915050565b5f60208284031215610bfd57610bfc61097b565b5b5f610c0a84828501610bd4565b91505092915050565b7f596f7520617265206e6f7420746865206f776e6572206f662074686973204e465f8201527f5400000000000000000000000000000000000000000000000000000000000000602082015250565b5f610c6d602183610b43565b9150610c7882610c13565b604082019050919050565b5f6020820190508181035f830152610c9a81610c61565b9050919050565b7f596f7520617265206e6f74207468652073656c6c6572206f662074686973204e5f8201527f4654000000000000000000000000000000000000000000000000000000000000602082015250565b5f610cfb602283610b43565b9150610d0682610ca1565b604082019050919050565b5f6020820190508181035f830152610d2881610cef565b9050919050565b5f602082019050610d425f830184610a59565b92915050565b7f4e4654206973206e6f74206c697374656420666f722073616c650000000000005f82015250565b5f610d7c601a83610b43565b9150610d8782610d48565b602082019050919050565b5f6020820190508181035f830152610da981610d70565b9050919050565b7f496e73756666696369656e74207061796d656e740000000000000000000000005f82015250565b5f610de4601483610b43565b9150610def82610db0565b602082019050919050565b5f6020820190508181035f830152610e1181610dd8565b9050919050565b5f606082019050610e2b5f830186610a59565b610e386020830185610a59565b610e456040830184610a4a565b949350505050565b5f604082019050610e605f830185610a59565b610e6d6020830184610a4a565b939250505056fea2646970667358221220fd34ec3a7b55f3fe191412e5b02ed24dbc47a69d6c84b51037f02f60db3688b764736f6c63430008150033",
  "immutableReferences": {},
  "source": "\r\n// SPDX-License-Identifier: MIT\r\npragma solidity ^0.8.20;\r\n\r\n \r\ninterface IERC721 {\r\n    function transferFrom(address from, address to, uint256 tokenId) external;\r\n    function ownerOf(uint256 tokenId) external view returns (address);\r\n}\r\n\r\n \r\n contract SimpleNFTMarketplace{\r\n     struct NFTItems{\r\n        uint256 price;\r\n        address sellers;\r\n     }\r\n \r\n mapping(address => mapping(uint256 => NFTItems)) public listings;\r\n\r\n    event NFTListed(address indexed nftAddress, uint256 indexed tokenId, uint256 price, address seller);\r\n    event NFTBought(address indexed nftAddress, uint256 indexed tokenId, address buyer, uint256 price);\r\n    event NFTUnlisted(address indexed nftAddress, uint256 indexed tokenId, address seller);\r\n\r\n \r\n \r\n function ListNFT(address nftAddress, uint256 tokenId, uint256 price) external {\r\n     require(listings[nftAddress][tokenId].price > 0, \"Price must be greater than zero\"); \r\n      require(IERC721(nftAddress).ownerOf(tokenId) == msg.sender, \"You are not the owner of this NFT\");\r\n\r\n        listings[nftAddress][tokenId] = NFTItems(price, msg.sender);\r\n\r\n        emit NFTListed(nftAddress, tokenId, price, msg.sender);\r\n}\r\n\r\n \r\n function buyNFT(address nftAddress, uint256 tokenId) external payable {\r\n    NFTItems storage item = listings[nftAddress][tokenId];\r\n    require(item.price > 0, \"NFT is not listed for sale\");\r\n    require(msg.value >= item.price, \"Insufficient payment\");\r\n\r\n    // Get the seller's address and price\r\n    address seller = item.sellers;\r\n    uint256 price = item.price;\r\n\r\n    \r\n    IERC721(nftAddress).transferFrom(seller, msg.sender, tokenId);\r\n\r\n    // Transfer funds to the seller\r\n    payable(seller).transfer(price);\r\n\r\n    delete listings[nftAddress][tokenId];\r\n\r\n    emit NFTBought(nftAddress, tokenId, msg.sender, price);\r\n}\r\n \r\n function unlistNFT(address nftAddress, uint256 tokenId) external {\r\n        NFTItems memory listing = listings[nftAddress][tokenId];\r\n        require(listing.sellers == msg.sender, \"You are not the seller of this NFT\");\r\n\r\n        // Remove the listing\r\n        delete listings[nftAddress][tokenId];\r\n\r\n        emit NFTUnlisted(nftAddress, tokenId, msg.sender);\r\n    }\r\n\r\n    // Function to get details of a listed NFT\r\n    function getListing(address nftAddress, uint256 tokenId) external view returns (NFTItems memory) {\r\n        return listings[nftAddress][tokenId];\r\n    }\r\n}\r\n \r\n \r\n\r\n ",
  "sourcePath": "C:\\Users\\HP\\Documents\\NFTMarketplace\\contracts\\myNFTmarketplace.sol",
  "compiler": {
    "name": "solc",
    "version": "0.8.21+commit.d9974bed.Emscripten.clang"
  },
  "schemaVersion": "3.4.16",
  "updatedAt": "2024-11-25T12:38:36.865Z",
  "devdoc": {
    "kind": "dev",
    "methods": {},
    "version": 1
  },
  "userdoc": {
    "kind": "user",
    "methods": {},
    "version": 1
  }
}